{
  "_format": "hh-sol-artifact-1",
  "contractName": "MargicPearl",
  "sourceName": "contracts/MargicPearl.sol",
  "abi": [
    {
      "inputs": [],
      "stateMutability": "nonpayable",
      "type": "constructor"
    },
    {
      "anonymous": false,
      "inputs": [
        {
          "indexed": true,
          "internalType": "address",
          "name": "owner",
          "type": "address"
        },
        {
          "indexed": true,
          "internalType": "address",
          "name": "approved",
          "type": "address"
        },
        {
          "indexed": true,
          "internalType": "uint256",
          "name": "tokenId",
          "type": "uint256"
        }
      ],
      "name": "Approval",
      "type": "event"
    },
    {
      "anonymous": false,
      "inputs": [
        {
          "indexed": true,
          "internalType": "address",
          "name": "owner",
          "type": "address"
        },
        {
          "indexed": true,
          "internalType": "address",
          "name": "operator",
          "type": "address"
        },
        {
          "indexed": false,
          "internalType": "bool",
          "name": "approved",
          "type": "bool"
        }
      ],
      "name": "ApprovalForAll",
      "type": "event"
    },
    {
      "anonymous": false,
      "inputs": [
        {
          "indexed": false,
          "internalType": "uint256",
          "name": "_fromTokenId",
          "type": "uint256"
        },
        {
          "indexed": false,
          "internalType": "uint256",
          "name": "_toTokenId",
          "type": "uint256"
        }
      ],
      "name": "BatchMetadataUpdate",
      "type": "event"
    },
    {
      "anonymous": false,
      "inputs": [
        {
          "indexed": false,
          "internalType": "uint256",
          "name": "_tokenId",
          "type": "uint256"
        }
      ],
      "name": "MetadataUpdate",
      "type": "event"
    },
    {
      "anonymous": false,
      "inputs": [
        {
          "indexed": true,
          "internalType": "address",
          "name": "previousOwner",
          "type": "address"
        },
        {
          "indexed": true,
          "internalType": "address",
          "name": "newOwner",
          "type": "address"
        }
      ],
      "name": "OwnershipTransferred",
      "type": "event"
    },
    {
      "anonymous": false,
      "inputs": [
        {
          "indexed": true,
          "internalType": "address",
          "name": "from",
          "type": "address"
        },
        {
          "indexed": true,
          "internalType": "address",
          "name": "to",
          "type": "address"
        },
        {
          "indexed": true,
          "internalType": "uint256",
          "name": "tokenId",
          "type": "uint256"
        }
      ],
      "name": "Transfer",
      "type": "event"
    },
    {
      "inputs": [
        {
          "internalType": "string",
          "name": "_tokenURI",
          "type": "string"
        },
        {
          "internalType": "address",
          "name": "contractAddress",
          "type": "address"
        }
      ],
      "name": "Mint",
      "outputs": [],
      "stateMutability": "nonpayable",
      "type": "function"
    },
    {
      "inputs": [
        {
          "internalType": "address",
          "name": "to",
          "type": "address"
        },
        {
          "internalType": "uint256",
          "name": "tokenId",
          "type": "uint256"
        }
      ],
      "name": "approve",
      "outputs": [],
      "stateMutability": "nonpayable",
      "type": "function"
    },
    {
      "inputs": [
        {
          "internalType": "address",
          "name": "",
          "type": "address"
        }
      ],
      "name": "authorizedVendors",
      "outputs": [
        {
          "internalType": "bool",
          "name": "",
          "type": "bool"
        }
      ],
      "stateMutability": "view",
      "type": "function"
    },
    {
      "inputs": [
        {
          "internalType": "address",
          "name": "owner",
          "type": "address"
        }
      ],
      "name": "balanceOf",
      "outputs": [
        {
          "internalType": "uint256",
          "name": "",
          "type": "uint256"
        }
      ],
      "stateMutability": "view",
      "type": "function"
    },
    {
      "inputs": [
        {
          "internalType": "uint256",
          "name": "tokenId",
          "type": "uint256"
        }
      ],
      "name": "getApproved",
      "outputs": [
        {
          "internalType": "address",
          "name": "",
          "type": "address"
        }
      ],
      "stateMutability": "view",
      "type": "function"
    },
    {
      "inputs": [
        {
          "internalType": "uint256",
          "name": "tokenId",
          "type": "uint256"
        }
      ],
      "name": "getNFTById",
      "outputs": [
        {
          "internalType": "address",
          "name": "owner",
          "type": "address"
        },
        {
          "internalType": "string",
          "name": "tokeNURI",
          "type": "string"
        }
      ],
      "stateMutability": "view",
      "type": "function"
    },
    {
      "inputs": [
        {
          "internalType": "address",
          "name": "owner",
          "type": "address"
        },
        {
          "internalType": "address",
          "name": "operator",
          "type": "address"
        }
      ],
      "name": "isApprovedForAll",
      "outputs": [
        {
          "internalType": "bool",
          "name": "",
          "type": "bool"
        }
      ],
      "stateMutability": "view",
      "type": "function"
    },
    {
      "inputs": [],
      "name": "name",
      "outputs": [
        {
          "internalType": "string",
          "name": "",
          "type": "string"
        }
      ],
      "stateMutability": "view",
      "type": "function"
    },
    {
      "inputs": [],
      "name": "owner",
      "outputs": [
        {
          "internalType": "address",
          "name": "",
          "type": "address"
        }
      ],
      "stateMutability": "view",
      "type": "function"
    },
    {
      "inputs": [
        {
          "internalType": "uint256",
          "name": "tokenId",
          "type": "uint256"
        }
      ],
      "name": "ownerOf",
      "outputs": [
        {
          "internalType": "address",
          "name": "",
          "type": "address"
        }
      ],
      "stateMutability": "view",
      "type": "function"
    },
    {
      "inputs": [],
      "name": "renounceOwnership",
      "outputs": [],
      "stateMutability": "nonpayable",
      "type": "function"
    },
    {
      "inputs": [
        {
          "internalType": "address",
          "name": "from",
          "type": "address"
        },
        {
          "internalType": "address",
          "name": "to",
          "type": "address"
        },
        {
          "internalType": "uint256",
          "name": "tokenId",
          "type": "uint256"
        }
      ],
      "name": "safeTransferFrom",
      "outputs": [],
      "stateMutability": "nonpayable",
      "type": "function"
    },
    {
      "inputs": [
        {
          "internalType": "address",
          "name": "from",
          "type": "address"
        },
        {
          "internalType": "address",
          "name": "to",
          "type": "address"
        },
        {
          "internalType": "uint256",
          "name": "tokenId",
          "type": "uint256"
        },
        {
          "internalType": "bytes",
          "name": "data",
          "type": "bytes"
        }
      ],
      "name": "safeTransferFrom",
      "outputs": [],
      "stateMutability": "nonpayable",
      "type": "function"
    },
    {
      "inputs": [
        {
          "internalType": "address",
          "name": "operator",
          "type": "address"
        },
        {
          "internalType": "bool",
          "name": "approved",
          "type": "bool"
        }
      ],
      "name": "setApprovalForAll",
      "outputs": [],
      "stateMutability": "nonpayable",
      "type": "function"
    },
    {
      "inputs": [
        {
          "internalType": "bytes4",
          "name": "interfaceId",
          "type": "bytes4"
        }
      ],
      "name": "supportsInterface",
      "outputs": [
        {
          "internalType": "bool",
          "name": "",
          "type": "bool"
        }
      ],
      "stateMutability": "view",
      "type": "function"
    },
    {
      "inputs": [],
      "name": "symbol",
      "outputs": [
        {
          "internalType": "string",
          "name": "",
          "type": "string"
        }
      ],
      "stateMutability": "view",
      "type": "function"
    },
    {
      "inputs": [
        {
          "internalType": "uint256",
          "name": "tokenId",
          "type": "uint256"
        }
      ],
      "name": "tokenURI",
      "outputs": [
        {
          "internalType": "string",
          "name": "",
          "type": "string"
        }
      ],
      "stateMutability": "view",
      "type": "function"
    },
    {
      "inputs": [
        {
          "internalType": "address",
          "name": "from",
          "type": "address"
        },
        {
          "internalType": "address",
          "name": "to",
          "type": "address"
        },
        {
          "internalType": "uint256",
          "name": "tokenId",
          "type": "uint256"
        }
      ],
      "name": "transferFrom",
      "outputs": [],
      "stateMutability": "nonpayable",
      "type": "function"
    },
    {
      "inputs": [
        {
          "internalType": "address",
          "name": "newOwner",
          "type": "address"
        }
      ],
      "name": "transferOwnership",
      "outputs": [],
      "stateMutability": "nonpayable",
      "type": "function"
    },
    {
      "inputs": [
        {
          "internalType": "uint256",
          "name": "",
          "type": "uint256"
        }
      ],
      "name": "vendorList",
      "outputs": [
        {
          "internalType": "address",
          "name": "",
          "type": "address"
        }
      ],
      "stateMutability": "view",
      "type": "function"
    },
    {
      "inputs": [],
      "name": "withdraw",
      "outputs": [],
      "stateMutability": "nonpayable",
      "type": "function"
    }
  ],
  "bytecode": "0x60806040523480156200001157600080fd5b506040518060400160405280600b81526020016a135859da58c8141150549360aa1b81525060405180604001604052806007815260200166134b541150549360ca1b815250816000908162000067919062000194565b50600162000076828262000194565b505050620000936200008d6200009960201b60201c565b6200009d565b62000260565b3390565b600780546001600160a01b038381166001600160a01b0319831681179093556040519116919082907f8be0079c531659141344cd1fd0a4f28419497f9722a3daafe3b4186f6b6457e090600090a35050565b634e487b7160e01b600052604160045260246000fd5b600181811c908216806200011a57607f821691505b6020821081036200013b57634e487b7160e01b600052602260045260246000fd5b50919050565b601f8211156200018f57600081815260208120601f850160051c810160208610156200016a5750805b601f850160051c820191505b818110156200018b5782815560010162000176565b5050505b505050565b81516001600160401b03811115620001b057620001b0620000ef565b620001c881620001c1845462000105565b8462000141565b602080601f831160018114620002005760008415620001e75750858301515b600019600386901b1c1916600185901b1785556200018b565b600085815260208120601f198616915b82811015620002315788860151825594840194600190910190840162000210565b5085821015620002505787850151600019600388901b60f8161c191681555b5050505050600190811b01905550565b61197380620002706000396000f3fe608060405234801561001057600080fd5b50600436106101375760003560e01c806379b04a02116100b8578063a22cb4651161007c578063a22cb46514610283578063b88d4fde14610296578063c87b56dd146102a9578063e985e9c5146102bc578063f2fde38b146102f8578063f77938621461030b57600080fd5b806379b04a021461022357806384090734146102365780638da5cb5b1461024957806395d89b411461025a578063a168b8051461026257600080fd5b80633ccfd60b116100ff5780633ccfd60b146101cc57806342842e0e146101d45780636352211e146101e757806370a08231146101fa578063715018a61461021b57600080fd5b806301ffc9a71461013c57806306fdde0314610164578063081812fc14610179578063095ea7b3146101a457806323b872dd146101b9575b600080fd5b61014f61014a36600461135e565b61032e565b60405190151581526020015b60405180910390f35b61016c610359565b60405161015b91906113cb565b61018c6101873660046113de565b6103eb565b6040516001600160a01b03909116815260200161015b565b6101b76101b2366004611413565b610412565b005b6101b76101c736600461143d565b61052c565b6101b761055d565b6101b76101e236600461143d565b6105a1565b61018c6101f53660046113de565b6105bc565b61020d610208366004611479565b61061c565b60405190815260200161015b565b6101b76106a2565b6101b7610231366004611520565b6106b6565b61018c6102443660046113de565b6106f0565b6007546001600160a01b031661018c565b61016c61071a565b6102756102703660046113de565b610729565b60405161015b929190611582565b6101b76102913660046115a6565b610748565b6101b76102a43660046115e2565b610757565b61016c6102b73660046113de565b61078f565b61014f6102ca36600461165e565b6001600160a01b03918216600090815260056020908152604080832093909416825291909152205460ff1690565b6101b7610306366004611479565b61079a565b61014f610319366004611479565b60096020526000908152604090205460ff1681565b60006001600160e01b03198216632483248360e11b1480610353575061035382610810565b92915050565b60606000805461036890611688565b80601f016020809104026020016040519081016040528092919081815260200182805461039490611688565b80156103e15780601f106103b6576101008083540402835291602001916103e1565b820191906000526020600020905b8154815290600101906020018083116103c457829003601f168201915b5050505050905090565b60006103f682610860565b506000908152600460205260409020546001600160a01b031690565b600061041d826105bc565b9050806001600160a01b0316836001600160a01b03160361048f5760405162461bcd60e51b815260206004820152602160248201527f4552433732313a20617070726f76616c20746f2063757272656e74206f776e656044820152603960f91b60648201526084015b60405180910390fd5b336001600160a01b03821614806104ab57506104ab81336102ca565b61051d5760405162461bcd60e51b815260206004820152603d60248201527f4552433732313a20617070726f76652063616c6c6572206973206e6f7420746f60448201527f6b656e206f776e6572206f7220617070726f76656420666f7220616c6c0000006064820152608401610486565b61052783836108bf565b505050565b610536338261092d565b6105525760405162461bcd60e51b8152600401610486906116c2565b6105278383836109ac565b610565610b10565b6007546040516001600160a01b03909116904780156108fc02916000818181858888f1935050505015801561059e573d6000803e3d6000fd5b50565b61052783838360405180602001604052806000815250610757565b6000818152600260205260408120546001600160a01b0316806103535760405162461bcd60e51b8152602060048201526018602482015277115490cdcc8c4e881a5b9d985b1a59081d1bdad95b88125160421b6044820152606401610486565b60006001600160a01b0382166106865760405162461bcd60e51b815260206004820152602960248201527f4552433732313a2061646472657373207a65726f206973206e6f7420612076616044820152683634b21037bbb732b960b91b6064820152608401610486565b506001600160a01b031660009081526003602052604090205490565b6106aa610b10565b6106b46000610b6a565b565b6106c4600880546001019055565b60006106cf60085490565b90506106db3382610bbc565b6106e58184610bd6565b610527826001610748565b600a818154811061070057600080fd5b6000918252602090912001546001600160a01b0316905081565b60606001805461036890611688565b60006060610736836105bc565b915061074183610ca1565b9050915091565b610753338383610da9565b5050565b610761338361092d565b61077d5760405162461bcd60e51b8152600401610486906116c2565b61078984848484610e77565b50505050565b606061035382610ca1565b6107a2610b10565b6001600160a01b0381166108075760405162461bcd60e51b815260206004820152602660248201527f4f776e61626c653a206e6577206f776e657220697320746865207a65726f206160448201526564647265737360d01b6064820152608401610486565b61059e81610b6a565b60006001600160e01b031982166380ac58cd60e01b148061084157506001600160e01b03198216635b5e139f60e01b145b8061035357506301ffc9a760e01b6001600160e01b0319831614610353565b6000818152600260205260409020546001600160a01b031661059e5760405162461bcd60e51b8152602060048201526018602482015277115490cdcc8c4e881a5b9d985b1a59081d1bdad95b88125160421b6044820152606401610486565b600081815260046020526040902080546001600160a01b0319166001600160a01b03841690811790915581906108f4826105bc565b6001600160a01b03167f8c5be1e5ebec7d5bd14f71427d1e84f3dd0314c0f7b2291e5b200ac8c7c3b92560405160405180910390a45050565b600080610939836105bc565b9050806001600160a01b0316846001600160a01b0316148061098057506001600160a01b0380821660009081526005602090815260408083209388168352929052205460ff165b806109a45750836001600160a01b0316610999846103eb565b6001600160a01b0316145b949350505050565b826001600160a01b03166109bf826105bc565b6001600160a01b0316146109e55760405162461bcd60e51b81526004016104869061170f565b6001600160a01b038216610a475760405162461bcd60e51b8152602060048201526024808201527f4552433732313a207472616e7366657220746f20746865207a65726f206164646044820152637265737360e01b6064820152608401610486565b826001600160a01b0316610a5a826105bc565b6001600160a01b031614610a805760405162461bcd60e51b81526004016104869061170f565b600081815260046020908152604080832080546001600160a01b03199081169091556001600160a01b0387811680865260038552838620805460001901905590871680865283862080546001019055868652600290945282852080549092168417909155905184937fddf252ad1be2c89b69c2b068fc378daa952ba7f163c4a11628f55a4df523b3ef91a4505050565b6007546001600160a01b031633146106b45760405162461bcd60e51b815260206004820181905260248201527f4f776e61626c653a2063616c6c6572206973206e6f7420746865206f776e65726044820152606401610486565b600780546001600160a01b038381166001600160a01b0319831681179093556040519116919082907f8be0079c531659141344cd1fd0a4f28419497f9722a3daafe3b4186f6b6457e090600090a35050565b610753828260405180602001604052806000815250610eaa565b6000828152600260205260409020546001600160a01b0316610c515760405162461bcd60e51b815260206004820152602e60248201527f45524337323155524953746f726167653a2055524920736574206f66206e6f6e60448201526d32bc34b9ba32b73a103a37b5b2b760911b6064820152608401610486565b6000828152600660205260409020610c6982826117a2565b506040518281527ff8e1a15aba9398e019f0b49df1a4fde98ee17ae345cb5f6b5e2c27f5033e8ce79060200160405180910390a15050565b6060610cac82610860565b60008281526006602052604081208054610cc590611688565b80601f0160208091040260200160405190810160405280929190818152602001828054610cf190611688565b8015610d3e5780601f10610d1357610100808354040283529160200191610d3e565b820191906000526020600020905b815481529060010190602001808311610d2157829003601f168201915b505050505090506000610d5c60408051602081019091526000815290565b90508051600003610d6e575092915050565b815115610da0578082604051602001610d88929190611862565b60405160208183030381529060405292505050919050565b6109a484610edd565b816001600160a01b0316836001600160a01b031603610e0a5760405162461bcd60e51b815260206004820152601960248201527f4552433732313a20617070726f766520746f2063616c6c6572000000000000006044820152606401610486565b6001600160a01b03838116600081815260056020908152604080832094871680845294825291829020805460ff191686151590811790915591519182527f17307eab39ab6107e8899845ad3d59bd9653f200f220920489ca2b5937696c31910160405180910390a3505050565b610e828484846109ac565b610e8e84848484610f51565b6107895760405162461bcd60e51b815260040161048690611891565b610eb48383611052565b610ec16000848484610f51565b6105275760405162461bcd60e51b815260040161048690611891565b6060610ee882610860565b6000610eff60408051602081019091526000815290565b90506000815111610f1f5760405180602001604052806000815250610f4a565b80610f29846111dd565b604051602001610f3a929190611862565b6040516020818303038152906040525b9392505050565b60006001600160a01b0384163b1561104757604051630a85bd0160e11b81526001600160a01b0385169063150b7a0290610f959033908990889088906004016118e3565b6020604051808303816000875af1925050508015610fd0575060408051601f3d908101601f19168201909252610fcd91810190611920565b60015b61102d573d808015610ffe576040519150601f19603f3d011682016040523d82523d6000602084013e611003565b606091505b5080516000036110255760405162461bcd60e51b815260040161048690611891565b805181602001fd5b6001600160e01b031916630a85bd0160e11b1490506109a4565b506001949350505050565b6001600160a01b0382166110a85760405162461bcd60e51b815260206004820181905260248201527f4552433732313a206d696e7420746f20746865207a65726f20616464726573736044820152606401610486565b6000818152600260205260409020546001600160a01b03161561110d5760405162461bcd60e51b815260206004820152601c60248201527f4552433732313a20746f6b656e20616c7265616479206d696e746564000000006044820152606401610486565b6000818152600260205260409020546001600160a01b0316156111725760405162461bcd60e51b815260206004820152601c60248201527f4552433732313a20746f6b656e20616c7265616479206d696e746564000000006044820152606401610486565b6001600160a01b038216600081815260036020908152604080832080546001019055848352600290915280822080546001600160a01b0319168417905551839291907fddf252ad1be2c89b69c2b068fc378daa952ba7f163c4a11628f55a4df523b3ef908290a45050565b606060006111ea83611270565b600101905060008167ffffffffffffffff81111561120a5761120a611494565b6040519080825280601f01601f191660200182016040528015611234576020820181803683370190505b5090508181016020015b600019016f181899199a1a9b1b9c1cb0b131b232b360811b600a86061a8153600a850494508461123e57509392505050565b60008072184f03e93ff9f4daa797ed6e38ed64bf6a1f0160401b83106112af5772184f03e93ff9f4daa797ed6e38ed64bf6a1f0160401b830492506040015b6d04ee2d6d415b85acef810000000083106112db576d04ee2d6d415b85acef8100000000830492506020015b662386f26fc1000083106112f957662386f26fc10000830492506010015b6305f5e1008310611311576305f5e100830492506008015b612710831061132557612710830492506004015b60648310611337576064830492506002015b600a83106103535760010192915050565b6001600160e01b03198116811461059e57600080fd5b60006020828403121561137057600080fd5b8135610f4a81611348565b60005b8381101561139657818101518382015260200161137e565b50506000910152565b600081518084526113b781602086016020860161137b565b601f01601f19169290920160200192915050565b602081526000610f4a602083018461139f565b6000602082840312156113f057600080fd5b5035919050565b80356001600160a01b038116811461140e57600080fd5b919050565b6000806040838503121561142657600080fd5b61142f836113f7565b946020939093013593505050565b60008060006060848603121561145257600080fd5b61145b846113f7565b9250611469602085016113f7565b9150604084013590509250925092565b60006020828403121561148b57600080fd5b610f4a826113f7565b634e487b7160e01b600052604160045260246000fd5b600067ffffffffffffffff808411156114c5576114c5611494565b604051601f8501601f19908116603f011681019082821181831017156114ed576114ed611494565b8160405280935085815286868601111561150657600080fd5b858560208301376000602087830101525050509392505050565b6000806040838503121561153357600080fd5b823567ffffffffffffffff81111561154a57600080fd5b8301601f8101851361155b57600080fd5b61156a858235602084016114aa565b925050611579602084016113f7565b90509250929050565b6001600160a01b03831681526040602082018190526000906109a49083018461139f565b600080604083850312156115b957600080fd5b6115c2836113f7565b9150602083013580151581146115d757600080fd5b809150509250929050565b600080600080608085870312156115f857600080fd5b611601856113f7565b935061160f602086016113f7565b925060408501359150606085013567ffffffffffffffff81111561163257600080fd5b8501601f8101871361164357600080fd5b611652878235602084016114aa565b91505092959194509250565b6000806040838503121561167157600080fd5b61167a836113f7565b9150611579602084016113f7565b600181811c9082168061169c57607f821691505b6020821081036116bc57634e487b7160e01b600052602260045260246000fd5b50919050565b6020808252602d908201527f4552433732313a2063616c6c6572206973206e6f7420746f6b656e206f776e6560408201526c1c881bdc88185c1c1c9bdd9959609a1b606082015260800190565b60208082526025908201527f4552433732313a207472616e736665722066726f6d20696e636f72726563742060408201526437bbb732b960d91b606082015260800190565b601f82111561052757600081815260208120601f850160051c8101602086101561177b5750805b601f850160051c820191505b8181101561179a57828155600101611787565b505050505050565b815167ffffffffffffffff8111156117bc576117bc611494565b6117d0816117ca8454611688565b84611754565b602080601f83116001811461180557600084156117ed5750858301515b600019600386901b1c1916600185901b17855561179a565b600085815260208120601f198616915b8281101561183457888601518255948401946001909101908401611815565b50858210156118525787850151600019600388901b60f8161c191681555b5050505050600190811b01905550565b6000835161187481846020880161137b565b83519083019061188881836020880161137b565b01949350505050565b60208082526032908201527f4552433732313a207472616e7366657220746f206e6f6e20455243373231526560408201527131b2b4bb32b91034b6b83632b6b2b73a32b960711b606082015260800190565b6001600160a01b03858116825284166020820152604081018390526080606082018190526000906119169083018461139f565b9695505050505050565b60006020828403121561193257600080fd5b8151610f4a8161134856fea264697066735822122023801a5d4099ec1ab5c2498983083100390aa102a02f071f28e3326628974afd64736f6c63430008110033",
  "linkReferences": {},
  "deployedLinkReferences": {}
}