{
  "_format": "hh-sol-artifact-1",
  "contractName": "NFTMarketplace",
  "sourceName": "contracts/NFTMarketplace.sol",
  "abi": [
    {
      "inputs": [
        {
          "internalType": "address",
          "name": "_vendorNFT",
          "type": "address"
        },
        {
          "internalType": "address payable",
          "name": "_owner",
          "type": "address"
        }
      ],
      "stateMutability": "nonpayable",
      "type": "constructor"
    },
    {
      "anonymous": false,
      "inputs": [
        {
          "indexed": true,
          "internalType": "address",
          "name": "buyer",
          "type": "address"
        },
        {
          "indexed": false,
          "internalType": "uint256",
          "name": "tokenId",
          "type": "uint256"
        },
        {
          "indexed": false,
          "internalType": "uint256",
          "name": "price",
          "type": "uint256"
        }
      ],
      "name": "NFTBought",
      "type": "event"
    },
    {
      "anonymous": false,
      "inputs": [
        {
          "indexed": true,
          "internalType": "address",
          "name": "user",
          "type": "address"
        },
        {
          "indexed": false,
          "internalType": "uint256",
          "name": "newTotalPoints",
          "type": "uint256"
        }
      ],
      "name": "PointsUpdated",
      "type": "event"
    },
    {
      "anonymous": false,
      "inputs": [
        {
          "indexed": true,
          "internalType": "uint256",
          "name": "tokenId",
          "type": "uint256"
        },
        {
          "indexed": false,
          "internalType": "address",
          "name": "owner",
          "type": "address"
        },
        {
          "indexed": false,
          "internalType": "address",
          "name": "seller",
          "type": "address"
        },
        {
          "indexed": false,
          "internalType": "uint256",
          "name": "price",
          "type": "uint256"
        },
        {
          "indexed": false,
          "internalType": "bool",
          "name": "currentlyListed",
          "type": "bool"
        }
      ],
      "name": "TokenListedSuccess",
      "type": "event"
    },
    {
      "inputs": [
        {
          "internalType": "address",
          "name": "nftContract",
          "type": "address"
        },
        {
          "internalType": "uint256",
          "name": "itemId",
          "type": "uint256"
        }
      ],
      "name": "buyNFT",
      "outputs": [],
      "stateMutability": "payable",
      "type": "function"
    },
    {
      "inputs": [
        {
          "internalType": "uint256",
          "name": "itemId",
          "type": "uint256"
        },
        {
          "internalType": "uint256",
          "name": "newPrice",
          "type": "uint256"
        }
      ],
      "name": "editNftPrice",
      "outputs": [],
      "stateMutability": "payable",
      "type": "function"
    },
    {
      "inputs": [],
      "name": "getActiveListings",
      "outputs": [
        {
          "components": [
            {
              "internalType": "uint256",
              "name": "itemId",
              "type": "uint256"
            },
            {
              "internalType": "address",
              "name": "nftContract",
              "type": "address"
            },
            {
              "internalType": "uint256",
              "name": "tokenId",
              "type": "uint256"
            },
            {
              "internalType": "address payable",
              "name": "owner",
              "type": "address"
            },
            {
              "internalType": "address payable",
              "name": "seller",
              "type": "address"
            },
            {
              "internalType": "uint256",
              "name": "price",
              "type": "uint256"
            },
            {
              "internalType": "bool",
              "name": "currentlyListed",
              "type": "bool"
            }
          ],
          "internalType": "struct NFTMarketplace.ListedToken[]",
          "name": "",
          "type": "tuple[]"
        }
      ],
      "stateMutability": "view",
      "type": "function"
    },
    {
      "inputs": [],
      "name": "getAllListings",
      "outputs": [
        {
          "components": [
            {
              "internalType": "uint256",
              "name": "itemId",
              "type": "uint256"
            },
            {
              "internalType": "address",
              "name": "nftContract",
              "type": "address"
            },
            {
              "internalType": "uint256",
              "name": "tokenId",
              "type": "uint256"
            },
            {
              "internalType": "address payable",
              "name": "owner",
              "type": "address"
            },
            {
              "internalType": "address payable",
              "name": "seller",
              "type": "address"
            },
            {
              "internalType": "uint256",
              "name": "price",
              "type": "uint256"
            },
            {
              "internalType": "bool",
              "name": "currentlyListed",
              "type": "bool"
            }
          ],
          "internalType": "struct NFTMarketplace.ListedToken[]",
          "name": "",
          "type": "tuple[]"
        }
      ],
      "stateMutability": "view",
      "type": "function"
    },
    {
      "inputs": [],
      "name": "getListingFee",
      "outputs": [
        {
          "internalType": "uint256",
          "name": "",
          "type": "uint256"
        }
      ],
      "stateMutability": "view",
      "type": "function"
    },
    {
      "inputs": [],
      "name": "getMyNFTs",
      "outputs": [
        {
          "components": [
            {
              "internalType": "uint256",
              "name": "itemId",
              "type": "uint256"
            },
            {
              "internalType": "address",
              "name": "nftContract",
              "type": "address"
            },
            {
              "internalType": "uint256",
              "name": "tokenId",
              "type": "uint256"
            },
            {
              "internalType": "address payable",
              "name": "owner",
              "type": "address"
            },
            {
              "internalType": "address payable",
              "name": "seller",
              "type": "address"
            },
            {
              "internalType": "uint256",
              "name": "price",
              "type": "uint256"
            },
            {
              "internalType": "bool",
              "name": "currentlyListed",
              "type": "bool"
            }
          ],
          "internalType": "struct NFTMarketplace.ListedToken[]",
          "name": "",
          "type": "tuple[]"
        }
      ],
      "stateMutability": "view",
      "type": "function"
    },
    {
      "inputs": [
        {
          "internalType": "uint256",
          "name": "itemId",
          "type": "uint256"
        }
      ],
      "name": "getNFTById",
      "outputs": [
        {
          "internalType": "uint256",
          "name": "tokenId",
          "type": "uint256"
        },
        {
          "internalType": "address",
          "name": "owner_",
          "type": "address"
        },
        {
          "internalType": "address",
          "name": "seller",
          "type": "address"
        },
        {
          "internalType": "uint256",
          "name": "price",
          "type": "uint256"
        },
        {
          "internalType": "string",
          "name": "uri",
          "type": "string"
        },
        {
          "internalType": "bool",
          "name": "currentlyListed",
          "type": "bool"
        }
      ],
      "stateMutability": "view",
      "type": "function"
    },
    {
      "inputs": [
        {
          "internalType": "address",
          "name": "user",
          "type": "address"
        }
      ],
      "name": "isEligibleForAirdrop",
      "outputs": [
        {
          "internalType": "bool",
          "name": "",
          "type": "bool"
        }
      ],
      "stateMutability": "view",
      "type": "function"
    },
    {
      "inputs": [
        {
          "internalType": "address",
          "name": "nftContract",
          "type": "address"
        },
        {
          "internalType": "uint256",
          "name": "tokenId",
          "type": "uint256"
        },
        {
          "internalType": "uint256",
          "name": "price",
          "type": "uint256"
        }
      ],
      "name": "listNFT",
      "outputs": [],
      "stateMutability": "payable",
      "type": "function"
    },
    {
      "inputs": [],
      "name": "pointThreshold",
      "outputs": [
        {
          "internalType": "uint256",
          "name": "",
          "type": "uint256"
        }
      ],
      "stateMutability": "view",
      "type": "function"
    },
    {
      "inputs": [],
      "name": "pointsPerTransaction",
      "outputs": [
        {
          "internalType": "uint256",
          "name": "",
          "type": "uint256"
        }
      ],
      "stateMutability": "view",
      "type": "function"
    },
    {
      "inputs": [
        {
          "internalType": "uint256",
          "name": "newThreshold",
          "type": "uint256"
        }
      ],
      "name": "setPointThreshold",
      "outputs": [],
      "stateMutability": "nonpayable",
      "type": "function"
    },
    {
      "inputs": [
        {
          "internalType": "uint256",
          "name": "newPoints",
          "type": "uint256"
        }
      ],
      "name": "setPointsPerTransaction",
      "outputs": [],
      "stateMutability": "nonpayable",
      "type": "function"
    },
    {
      "inputs": [
        {
          "internalType": "address",
          "name": "",
          "type": "address"
        }
      ],
      "name": "transactionCount",
      "outputs": [
        {
          "internalType": "uint256",
          "name": "",
          "type": "uint256"
        }
      ],
      "stateMutability": "view",
      "type": "function"
    },
    {
      "inputs": [
        {
          "internalType": "uint256",
          "name": "_listingFee",
          "type": "uint256"
        }
      ],
      "name": "updateListingFee",
      "outputs": [],
      "stateMutability": "payable",
      "type": "function"
    },
    {
      "inputs": [
        {
          "internalType": "address",
          "name": "",
          "type": "address"
        }
      ],
      "name": "userPoints",
      "outputs": [
        {
          "internalType": "uint256",
          "name": "",
          "type": "uint256"
        }
      ],
      "stateMutability": "view",
      "type": "function"
    },
    {
      "inputs": [],
      "name": "vendorNFT",
      "outputs": [
        {
          "internalType": "contract VendorNFT",
          "name": "",
          "type": "address"
        }
      ],
      "stateMutability": "view",
      "type": "function"
    },
    {
      "inputs": [],
      "name": "withdraw",
      "outputs": [],
      "stateMutability": "nonpayable",
      "type": "function"
    }
  ],
  "bytecode": "0x6080604052662386f26fc10000600555600a60065560646007553480156200002657600080fd5b5060405162001a0738038062001a07833981016040819052620000499162000099565b6001600081905580546001600160a01b039384166001600160a01b03199182161790915560048054929093169116179055620000d8565b6001600160a01b03811681146200009657600080fd5b50565b60008060408385031215620000ad57600080fd5b8251620000ba8162000080565b6020840151909250620000cd8162000080565b809150509250929050565b61191f80620000e86000396000f3fe6080604052600436106101095760003560e01c8063a82ba76f11610095578063b8fe6abe11610064578063b8fe6abe146102ad578063d9a98e29146102c2578063e9d1c598146102d5578063f50ddbc714610322578063f79d91ae1461034f57600080fd5b8063a82ba76f1461025c578063ad05f1b41461026f578063ae73ccec14610282578063b0adb2201461029757600080fd5b80634f0b0fed116100dc5780634f0b0fed146101a6578063629cb2e4146101c657806387c35bc0146101e857806399be3375146101fd578063a168b8051461022a57600080fd5b806304287a121461010e5780633ccfd60b1461013757806341a25f531461014e5780634c5dbe2f1461016e575b600080fd5b34801561011a57600080fd5b5061012460065481565b6040519081526020015b60405180910390f35b34801561014357600080fd5b5061014c610362565b005b34801561015a57600080fd5b5061014c61016936600461150d565b6103d1565b34801561017a57600080fd5b5060015461018e906001600160a01b031681565b6040516001600160a01b03909116815260200161012e565b3480156101b257600080fd5b5061014c6101c136600461150d565b610400565b3480156101d257600080fd5b506101db61042f565b60405161012e9190611526565b3480156101f457600080fd5b506101db61066b565b34801561020957600080fd5b506101246102183660046115cf565b60096020526000908152604090205481565b34801561023657600080fd5b5061024a61024536600461150d565b6107fa565b60405161012e96959493929190611617565b61014c61026a36600461167a565b610989565b61014c61027d3660046116a6565b610bea565b34801561028e57600080fd5b506101db6110e6565b3480156102a357600080fd5b5061012460075481565b3480156102b957600080fd5b50600554610124565b61014c6102d03660046116db565b61120b565b3480156102e157600080fd5b506103126102f03660046115cf565b6007546001600160a01b03909116600090815260086020526040902054101590565b604051901515815260200161012e565b34801561032e57600080fd5b5061012461033d3660046115cf565b60086020526000908152604090205481565b61014c61035d36600461150d565b611364565b6004546001600160a01b031633146103955760405162461bcd60e51b815260040161038c906116fd565b60405180910390fd5b6004546040516001600160a01b03909116904780156108fc02916000818181858888f193505050501580156103ce573d6000803e3d6000fd5b50565b6004546001600160a01b031633146103fb5760405162461bcd60e51b815260040161038c906116fd565b600655565b6004546001600160a01b0316331461042a5760405162461bcd60e51b815260040161038c906116fd565b600755565b6060600061043c60025490565b905060008080805b848110156104d45733600a600061045c84600161174a565b81526020810191909152604001600020600301546001600160a01b031614806104af575033600a600061049084600161174a565b81526020810191909152604001600020600401546001600160a01b0316145b156104c2576104bf60018561174a565b93505b806104cc81611763565b915050610444565b5060008367ffffffffffffffff8111156104f0576104f061177c565b60405190808252806020026020018201604052801561052957816020015b6105166114d1565b81526020019060019003908161050e5790505b50905060005b858110156106615733600a600061054784600161174a565b81526020810191909152604001600020600301546001600160a01b0316148061059a575033600a600061057b84600161174a565b81526020810191909152604001600020600401546001600160a01b0316145b1561064f576105aa81600161174a565b6000818152600a6020908152604091829020825160e0810184528154815260018201546001600160a01b039081169382019390935260028201549381019390935260038101548216606084015260048101549091166080830152600581015460a0830152600681015460ff16151560c083015284519295509184908790811061063557610635611792565b602090810291909101015261064b60018661174a565b9450505b8061065981611763565b91505061052f565b5095945050505050565b6060600061067860025490565b9050600060015b8281116106c0576000818152600a602052604090206006015460ff16156106ae57816106aa81611763565b9250505b806106b881611763565b91505061067f565b5060008167ffffffffffffffff8111156106dc576106dc61177c565b60405190808252806020026020018201604052801561071557816020015b6107026114d1565b8152602001906001900390816106fa5790505b509050600060015b8481116107f0576000818152600a602052604090206006015460ff16156107de576000818152600a6020908152604091829020825160e0810184528154815260018201546001600160a01b039081169382019390935260028201549381019390935260038101548216606084015260048101549091166080830152600581015460a08301526006015460ff16151560c082015283518490849081106107c4576107c4611792565b602002602001018190525081806107da90611763565b9250505b806107e881611763565b91505061071d565b5090949350505050565b6000818152600a60209081526040808320815160e081018352815481526001808301546001600160a01b039081169583019590955260028301548285018190526003840154861660608085019190915260048086015488166080860152600586015460a086015260069095015460ff16151560c0850152915494516331a9108f60e11b81529384015285948594859492938593909284921690636352211e90602401602060405180830381865afa1580156108b9573d6000803e3d6000fd5b505050506040513d601f19601f820116820180604052508101906108dd91906117a8565b600154604080850151905163c87b56dd60e01b81529293506000926001600160a01b039092169163c87b56dd9161091a9160040190815260200190565b600060405180830381865afa158015610937573d6000803e3d6000fd5b505050506040513d6000823e601f3d908101601f1916820160405261095f91908101906117c5565b6040840151608085015160a086015160c090960151919d949c509a50939850965091945092505050565b6109916113cf565b6000818152600a6020526040902060058101546002820154600483015460068401546001600160a01b039091169060ff1680610a075760405162461bcd60e51b81526020600482015260156024820152744c697374696e67206973206e6f742061637469766560581b604482015260640161038c565b83341015610a7f576040805162461bcd60e51b81526020600482015260248101919091527f506c65617365207375626d6974207468652061736b696e67207072696365206960448201527f6e206f7264657220746f20636f6d706c65746520746865207075726368617365606482015260840161038c565b6040516001600160a01b038316903480156108fc02916000818181858888f19350505050158015610ab4573d6000803e3d6000fd5b506040516323b872dd60e01b8152306004820152336024820152604481018490526001600160a01b038816906323b872dd90606401600060405180830381600087803b158015610b0357600080fd5b505af1158015610b17573d6000803e3d6000fd5b5050506000878152600a602052604090206004810180546001600160a01b03191633179055600601805460ff1916905550610b56600380546001019055565b6004546005546040516001600160a01b039092169181156108fc0291906000818181858888f19350505050158015610b92573d6000803e3d6000fd5b50610b9c33611428565b604080518481526020810186905233917f38bb180d23818aef357ad4b3806bac3fa13c3492c0ac9d1727381fb2422aaada910160405180910390a25050505050610be66001600055565b5050565b610bf26113cf565b600554341015610c3f5760405162461bcd60e51b8152602060048201526018602482015277696e73756666696369656e74206c697374696e672066656560401b604482015260640161038c565b60008111610c5f5760405162461bcd60e51b815260040161038c90611872565b6001546001600160a01b0390811690841603610d3b576040516331a9108f60e11b81526004810183905233906001600160a01b03851690636352211e90602401602060405180830381865afa158015610cbc573d6000803e3d6000fd5b505050506040513d601f19601f82011682018060405250810190610ce091906117a8565b6001600160a01b031614610d365760405162461bcd60e51b815260206004820152601f60248201527f596f75206d757374206f776e20746865204e465420746f206c69737420697400604482015260640161038c565b610ec5565b600154604051630375994960e61b81523360048201526001600160a01b039091169063dd66524090602401602060405180830381865afa158015610d83573d6000803e3d6000fd5b505050506040513d601f19601f82011682018060405250810190610da791906118b4565b610e045760405162461bcd60e51b815260206004820152602860248201527f4f6e6c792076656e646f72732063616e206c6973742066726f6d20746869732060448201526718dbdb9d1c9858dd60c21b606482015260840161038c565b6040516331a9108f60e11b81526004810183905233906001600160a01b03851690636352211e90602401602060405180830381865afa158015610e4b573d6000803e3d6000fd5b505050506040513d601f19601f82011682018060405250810190610e6f91906117a8565b6001600160a01b031614610ec55760405162461bcd60e51b815260206004820152601f60248201527f596f75206d757374206f776e20746865204e465420746f206c69737420697400604482015260640161038c565b610ed3600280546001019055565b6000610ede60025490565b6040516323b872dd60e01b8152336004820152306024820152604481018590529091506001600160a01b038516906323b872dd90606401600060405180830381600087803b158015610f2f57600080fd5b505af1158015610f43573d6000803e3d6000fd5b505050506040518060e00160405280828152602001856001600160a01b03168152602001848152602001306001600160a01b03168152602001336001600160a01b0316815260200183815260200160011515815250600a60008381526020019081526020016000206000820151816000015560208201518160010160006101000a8154816001600160a01b0302191690836001600160a01b031602179055506040820151816002015560608201518160030160006101000a8154816001600160a01b0302191690836001600160a01b0316021790555060808201518160040160006101000a8154816001600160a01b0302191690836001600160a01b0316021790555060a0820151816005015560c08201518160060160006101000a81548160ff021916908315150217905550905050827f9339409317fd01fabff48b703019016f49159bacc801ae872d2ca637d226e4c030338560016040516110ce94939291906001600160a01b0394851681529290931660208301526040820152901515606082015260800190565b60405180910390a2506110e16001600055565b505050565b606060006110f360025490565b905060008167ffffffffffffffff8111156111105761111061177c565b60405190808252806020026020018201604052801561114957816020015b6111366114d1565b81526020019060019003908161112e5790505b50905060015b828111611204576000818152600a6020908152604091829020825160e081018452815481526001808301546001600160a01b039081169483019490945260028301549482019490945260038201548316606082015260048201549092166080830152600581015460a08301526006015460ff16151560c08201529083906111d690846118d6565b815181106111e6576111e6611792565b602002602001018190525080806111fc90611763565b91505061114f565b5092915050565b6112136113cf565b6005543410156112605760405162461bcd60e51b8152602060048201526018602482015277696e73756666696369656e74206c697374696e672066656560401b604482015260640161038c565b600081116112805760405162461bcd60e51b815260040161038c90611872565b6000828152600a60205260409020600681015460ff166112ee5760405162461bcd60e51b8152602060048201526024808201527f4e4654206973206e6f74206c697374656420696e20746865206d61726b6574706044820152636c61636560e01b606482015260840161038c565b60048101546001600160a01b031633146113545760405162461bcd60e51b815260206004820152602160248201527f4f6e6c7920746865206f776e65722063616e20656469742074686520707269636044820152606560f81b606482015260840161038c565b600501819055610be66001600055565b6004546001600160a01b031633146113ca5760405162461bcd60e51b815260206004820152602360248201527f4f6e6c79206f776e65722063616e20757064617465206c697374696e6720707260448201526269636560e81b606482015260840161038c565b600555565b6002600054036114215760405162461bcd60e51b815260206004820152601f60248201527f5265656e7472616e637947756172643a207265656e7472616e742063616c6c00604482015260640161038c565b6002600055565b6006546001600160a01b0382166000908152600860205260408120805490919061145390849061174a565b90915550506001600160a01b038116600090815260096020526040812080549161147c83611763565b90915550506001600160a01b0381166000818152600860209081526040918290205491519182527fa05f39e6d8d4e060324edb900f0f5909de621fd93f19ccf65ba74e5965c98c36910160405180910390a250565b6040805160e081018252600080825260208201819052918101829052606081018290526080810182905260a0810182905260c081019190915290565b60006020828403121561151f57600080fd5b5035919050565b602080825282518282018190526000919060409081850190868401855b828110156115ad57815180518552868101516001600160a01b039081168887015286820151878701526060808301518216908701526080808301519091169086015260a0808201519086015260c09081015115159085015260e09093019290850190600101611543565b5091979650505050505050565b6001600160a01b03811681146103ce57600080fd5b6000602082840312156115e157600080fd5b81356115ec816115ba565b9392505050565b60005b8381101561160e5781810151838201526020016115f6565b50506000910152565b868152600060018060a01b03808816602084015280871660408401525084606083015260c0608083015283518060c084015261165a8160e08501602088016115f3565b92151560a083015250601f91909101601f19160160e00195945050505050565b6000806040838503121561168d57600080fd5b8235611698816115ba565b946020939093013593505050565b6000806000606084860312156116bb57600080fd5b83356116c6816115ba565b95602085013595506040909401359392505050565b600080604083850312156116ee57600080fd5b50508035926020909101359150565b60208082526017908201527f43616c6c6572206973206e6f7420746865206f776e6572000000000000000000604082015260600190565b634e487b7160e01b600052601160045260246000fd5b8082018082111561175d5761175d611734565b92915050565b60006001820161177557611775611734565b5060010190565b634e487b7160e01b600052604160045260246000fd5b634e487b7160e01b600052603260045260246000fd5b6000602082840312156117ba57600080fd5b81516115ec816115ba565b6000602082840312156117d757600080fd5b815167ffffffffffffffff808211156117ef57600080fd5b818401915084601f83011261180357600080fd5b8151818111156118155761181561177c565b604051601f8201601f19908116603f0116810190838211818310171561183d5761183d61177c565b8160405282815287602084870101111561185657600080fd5b6118678360208301602088016115f3565b979650505050505050565b60208082526022908201527f4d616b652073757265207468652070726963652069736e2774206e6567617469604082015261766560f01b606082015260800190565b6000602082840312156118c657600080fd5b815180151581146115ec57600080fd5b8181038181111561175d5761175d61173456fea264697066735822122047c48fb39ba4e99a4fdc44a193694727763be979e1e03140191811850f2a0b5864736f6c63430008110033",
  "linkReferences": {},
  "deployedLinkReferences": {}
}