{
  "_format": "hh-sol-artifact-1",
  "contractName": "VendorNFT",
  "sourceName": "contracts/VendorNFT.sol",
  "abi": [
    {
      "inputs": [],
      "stateMutability": "nonpayable",
      "type": "constructor"
    },
    {
      "anonymous": false,
      "inputs": [
        {
          "indexed": true,
          "internalType": "address",
          "name": "owner",
          "type": "address"
        },
        {
          "indexed": true,
          "internalType": "address",
          "name": "approved",
          "type": "address"
        },
        {
          "indexed": true,
          "internalType": "uint256",
          "name": "tokenId",
          "type": "uint256"
        }
      ],
      "name": "Approval",
      "type": "event"
    },
    {
      "anonymous": false,
      "inputs": [
        {
          "indexed": true,
          "internalType": "address",
          "name": "owner",
          "type": "address"
        },
        {
          "indexed": true,
          "internalType": "address",
          "name": "operator",
          "type": "address"
        },
        {
          "indexed": false,
          "internalType": "bool",
          "name": "approved",
          "type": "bool"
        }
      ],
      "name": "ApprovalForAll",
      "type": "event"
    },
    {
      "anonymous": false,
      "inputs": [
        {
          "indexed": false,
          "internalType": "uint256",
          "name": "_fromTokenId",
          "type": "uint256"
        },
        {
          "indexed": false,
          "internalType": "uint256",
          "name": "_toTokenId",
          "type": "uint256"
        }
      ],
      "name": "BatchMetadataUpdate",
      "type": "event"
    },
    {
      "anonymous": false,
      "inputs": [
        {
          "indexed": false,
          "internalType": "uint256",
          "name": "_tokenId",
          "type": "uint256"
        }
      ],
      "name": "MetadataUpdate",
      "type": "event"
    },
    {
      "anonymous": false,
      "inputs": [
        {
          "indexed": true,
          "internalType": "address",
          "name": "previousOwner",
          "type": "address"
        },
        {
          "indexed": true,
          "internalType": "address",
          "name": "newOwner",
          "type": "address"
        }
      ],
      "name": "OwnershipTransferred",
      "type": "event"
    },
    {
      "anonymous": false,
      "inputs": [
        {
          "indexed": true,
          "internalType": "address",
          "name": "from",
          "type": "address"
        },
        {
          "indexed": true,
          "internalType": "address",
          "name": "to",
          "type": "address"
        },
        {
          "indexed": true,
          "internalType": "uint256",
          "name": "tokenId",
          "type": "uint256"
        }
      ],
      "name": "Transfer",
      "type": "event"
    },
    {
      "inputs": [
        {
          "internalType": "address",
          "name": "vendor",
          "type": "address"
        }
      ],
      "name": "addVendor",
      "outputs": [],
      "stateMutability": "nonpayable",
      "type": "function"
    },
    {
      "inputs": [
        {
          "internalType": "address",
          "name": "to",
          "type": "address"
        },
        {
          "internalType": "uint256",
          "name": "tokenId",
          "type": "uint256"
        }
      ],
      "name": "approve",
      "outputs": [],
      "stateMutability": "nonpayable",
      "type": "function"
    },
    {
      "inputs": [
        {
          "internalType": "address",
          "name": "",
          "type": "address"
        }
      ],
      "name": "authorizedVendors",
      "outputs": [
        {
          "internalType": "bool",
          "name": "",
          "type": "bool"
        }
      ],
      "stateMutability": "view",
      "type": "function"
    },
    {
      "inputs": [
        {
          "internalType": "address",
          "name": "owner",
          "type": "address"
        }
      ],
      "name": "balanceOf",
      "outputs": [
        {
          "internalType": "uint256",
          "name": "",
          "type": "uint256"
        }
      ],
      "stateMutability": "view",
      "type": "function"
    },
    {
      "inputs": [],
      "name": "getAllVendors",
      "outputs": [
        {
          "internalType": "address[]",
          "name": "",
          "type": "address[]"
        }
      ],
      "stateMutability": "view",
      "type": "function"
    },
    {
      "inputs": [
        {
          "internalType": "uint256",
          "name": "tokenId",
          "type": "uint256"
        }
      ],
      "name": "getApproved",
      "outputs": [
        {
          "internalType": "address",
          "name": "",
          "type": "address"
        }
      ],
      "stateMutability": "view",
      "type": "function"
    },
    {
      "inputs": [
        {
          "internalType": "uint256",
          "name": "tokenId",
          "type": "uint256"
        }
      ],
      "name": "getNFTById",
      "outputs": [
        {
          "internalType": "address",
          "name": "owner",
          "type": "address"
        },
        {
          "internalType": "string",
          "name": "tokeNURI",
          "type": "string"
        }
      ],
      "stateMutability": "view",
      "type": "function"
    },
    {
      "inputs": [
        {
          "internalType": "address",
          "name": "owner",
          "type": "address"
        },
        {
          "internalType": "address",
          "name": "operator",
          "type": "address"
        }
      ],
      "name": "isApprovedForAll",
      "outputs": [
        {
          "internalType": "bool",
          "name": "",
          "type": "bool"
        }
      ],
      "stateMutability": "view",
      "type": "function"
    },
    {
      "inputs": [
        {
          "internalType": "address",
          "name": "vendor",
          "type": "address"
        }
      ],
      "name": "isAuthorizedVendor",
      "outputs": [
        {
          "internalType": "bool",
          "name": "",
          "type": "bool"
        }
      ],
      "stateMutability": "view",
      "type": "function"
    },
    {
      "inputs": [],
      "name": "mintingFee",
      "outputs": [
        {
          "internalType": "uint256",
          "name": "",
          "type": "uint256"
        }
      ],
      "stateMutability": "view",
      "type": "function"
    },
    {
      "inputs": [],
      "name": "name",
      "outputs": [
        {
          "internalType": "string",
          "name": "",
          "type": "string"
        }
      ],
      "stateMutability": "view",
      "type": "function"
    },
    {
      "inputs": [],
      "name": "owner",
      "outputs": [
        {
          "internalType": "address",
          "name": "",
          "type": "address"
        }
      ],
      "stateMutability": "view",
      "type": "function"
    },
    {
      "inputs": [
        {
          "internalType": "uint256",
          "name": "tokenId",
          "type": "uint256"
        }
      ],
      "name": "ownerOf",
      "outputs": [
        {
          "internalType": "address",
          "name": "",
          "type": "address"
        }
      ],
      "stateMutability": "view",
      "type": "function"
    },
    {
      "inputs": [
        {
          "internalType": "string",
          "name": "_tokenURI",
          "type": "string"
        },
        {
          "internalType": "address",
          "name": "contractAddress",
          "type": "address"
        }
      ],
      "name": "publicMint",
      "outputs": [],
      "stateMutability": "payable",
      "type": "function"
    },
    {
      "inputs": [
        {
          "internalType": "address",
          "name": "vendor",
          "type": "address"
        }
      ],
      "name": "removeVendor",
      "outputs": [],
      "stateMutability": "nonpayable",
      "type": "function"
    },
    {
      "inputs": [],
      "name": "renounceOwnership",
      "outputs": [],
      "stateMutability": "nonpayable",
      "type": "function"
    },
    {
      "inputs": [
        {
          "internalType": "address",
          "name": "from",
          "type": "address"
        },
        {
          "internalType": "address",
          "name": "to",
          "type": "address"
        },
        {
          "internalType": "uint256",
          "name": "tokenId",
          "type": "uint256"
        }
      ],
      "name": "safeTransferFrom",
      "outputs": [],
      "stateMutability": "nonpayable",
      "type": "function"
    },
    {
      "inputs": [
        {
          "internalType": "address",
          "name": "from",
          "type": "address"
        },
        {
          "internalType": "address",
          "name": "to",
          "type": "address"
        },
        {
          "internalType": "uint256",
          "name": "tokenId",
          "type": "uint256"
        },
        {
          "internalType": "bytes",
          "name": "data",
          "type": "bytes"
        }
      ],
      "name": "safeTransferFrom",
      "outputs": [],
      "stateMutability": "nonpayable",
      "type": "function"
    },
    {
      "inputs": [
        {
          "internalType": "address",
          "name": "operator",
          "type": "address"
        },
        {
          "internalType": "bool",
          "name": "approved",
          "type": "bool"
        }
      ],
      "name": "setApprovalForAll",
      "outputs": [],
      "stateMutability": "nonpayable",
      "type": "function"
    },
    {
      "inputs": [
        {
          "internalType": "uint256",
          "name": "newFee",
          "type": "uint256"
        }
      ],
      "name": "setMintingFee",
      "outputs": [],
      "stateMutability": "nonpayable",
      "type": "function"
    },
    {
      "inputs": [
        {
          "internalType": "bytes4",
          "name": "interfaceId",
          "type": "bytes4"
        }
      ],
      "name": "supportsInterface",
      "outputs": [
        {
          "internalType": "bool",
          "name": "",
          "type": "bool"
        }
      ],
      "stateMutability": "view",
      "type": "function"
    },
    {
      "inputs": [],
      "name": "symbol",
      "outputs": [
        {
          "internalType": "string",
          "name": "",
          "type": "string"
        }
      ],
      "stateMutability": "view",
      "type": "function"
    },
    {
      "inputs": [
        {
          "internalType": "uint256",
          "name": "tokenId",
          "type": "uint256"
        }
      ],
      "name": "tokenURI",
      "outputs": [
        {
          "internalType": "string",
          "name": "",
          "type": "string"
        }
      ],
      "stateMutability": "view",
      "type": "function"
    },
    {
      "inputs": [
        {
          "internalType": "address",
          "name": "from",
          "type": "address"
        },
        {
          "internalType": "address",
          "name": "to",
          "type": "address"
        },
        {
          "internalType": "uint256",
          "name": "tokenId",
          "type": "uint256"
        }
      ],
      "name": "transferFrom",
      "outputs": [],
      "stateMutability": "nonpayable",
      "type": "function"
    },
    {
      "inputs": [
        {
          "internalType": "address",
          "name": "newOwner",
          "type": "address"
        }
      ],
      "name": "transferOwnership",
      "outputs": [],
      "stateMutability": "nonpayable",
      "type": "function"
    },
    {
      "inputs": [
        {
          "internalType": "uint256",
          "name": "",
          "type": "uint256"
        }
      ],
      "name": "vendorList",
      "outputs": [
        {
          "internalType": "address",
          "name": "",
          "type": "address"
        }
      ],
      "stateMutability": "view",
      "type": "function"
    },
    {
      "inputs": [
        {
          "internalType": "string",
          "name": "_tokenURI",
          "type": "string"
        },
        {
          "internalType": "address",
          "name": "contractAddress",
          "type": "address"
        }
      ],
      "name": "vendorMint",
      "outputs": [],
      "stateMutability": "nonpayable",
      "type": "function"
    },
    {
      "inputs": [],
      "name": "withdraw",
      "outputs": [],
      "stateMutability": "nonpayable",
      "type": "function"
    }
  ],
  "bytecode": "0x6080604052662386f26fc100006009553480156200001c57600080fd5b506040518060400160405280600b81526020016a11155490d208141150549360aa1b81525060405180604001604052806007815260200166110b541150549360ca1b81525081600090816200007291906200019f565b5060016200008182826200019f565b5050506200009e62000098620000a460201b60201c565b620000a8565b6200026b565b3390565b600780546001600160a01b038381166001600160a01b0319831681179093556040519116919082907f8be0079c531659141344cd1fd0a4f28419497f9722a3daafe3b4186f6b6457e090600090a35050565b634e487b7160e01b600052604160045260246000fd5b600181811c908216806200012557607f821691505b6020821081036200014657634e487b7160e01b600052602260045260246000fd5b50919050565b601f8211156200019a57600081815260208120601f850160051c81016020861015620001755750805b601f850160051c820191505b81811015620001965782815560010162000181565b5050505b505050565b81516001600160401b03811115620001bb57620001bb620000fa565b620001d381620001cc845462000110565b846200014c565b602080601f8311600181146200020b5760008415620001f25750858301515b600019600386901b1c1916600185901b17855562000196565b600085815260208120601f198616915b828110156200023c578886015182559484019460019091019084016200021b565b50858210156200025b5787850151600019600388901b60f8161c191681555b5050505050600190811b01905550565b611f67806200027b6000396000f3fe6080604052600436106101b75760003560e01c8063715018a6116100ec578063b88d4fde1161008a578063e949659f11610064578063e949659f146104ea578063e985e9c51461050a578063f2fde38b1461052a578063f77938621461054a57600080fd5b8063b88d4fde14610471578063c87b56dd14610491578063dd665240146104b157600080fd5b806395d89b41116100c657806395d89b41146103fb578063a168b80514610410578063a22cb4651461043e578063a5b926711461045e57600080fd5b8063715018a6146103a857806384090734146103bd5780638da5cb5b146103dd57600080fd5b806342842e0e116101595780635a64ad95116101335780635a64ad95146103225780635e0b421e146103465780636352211e1461036857806370a082311461038857600080fd5b806342842e0e146102c257806345e0f753146102e257806354b622c91461030257600080fd5b8063095ea7b311610195578063095ea7b31461024b578063238a47091461026d57806323b872dd1461028d5780633ccfd60b146102ad57600080fd5b806301ffc9a7146101bc57806306fdde03146101f1578063081812fc14610213575b600080fd5b3480156101c857600080fd5b506101dc6101d7366004611897565b61057a565b60405190151581526020015b60405180910390f35b3480156101fd57600080fd5b506102066105a5565b6040516101e89190611904565b34801561021f57600080fd5b5061023361022e366004611917565b610637565b6040516001600160a01b0390911681526020016101e8565b34801561025757600080fd5b5061026b61026636600461194c565b61065e565b005b34801561027957600080fd5b5061026b610288366004611917565b610778565b34801561029957600080fd5b5061026b6102a8366004611976565b610785565b3480156102b957600080fd5b5061026b6107b6565b3480156102ce57600080fd5b5061026b6102dd366004611976565b6107fa565b3480156102ee57600080fd5b5061026b6102fd3660046119b2565b610815565b34801561030e57600080fd5b5061026b61031d3660046119b2565b610883565b34801561032e57600080fd5b5061033860095481565b6040519081526020016101e8565b34801561035257600080fd5b5061035b6109b4565b6040516101e891906119cd565b34801561037457600080fd5b50610233610383366004611917565b610a15565b34801561039457600080fd5b506103386103a33660046119b2565b610a75565b3480156103b457600080fd5b5061026b610afb565b3480156103c957600080fd5b506102336103d8366004611917565b610b0f565b3480156103e957600080fd5b506007546001600160a01b0316610233565b34801561040757600080fd5b50610206610b39565b34801561041c57600080fd5b5061043061042b366004611917565b610b48565b6040516101e8929190611a1a565b34801561044a57600080fd5b5061026b610459366004611a3e565b610b67565b61026b61046c366004611b06565b610b72565b34801561047d57600080fd5b5061026b61048c366004611b68565b610bfe565b34801561049d57600080fd5b506102066104ac366004611917565b610c36565b3480156104bd57600080fd5b506101dc6104cc3660046119b2565b6001600160a01b03166000908152600a602052604090205460ff1690565b3480156104f657600080fd5b5061026b610505366004611b06565b610c41565b34801561051657600080fd5b506101dc610525366004611be4565b610cc5565b34801561053657600080fd5b5061026b6105453660046119b2565b610cf3565b34801561055657600080fd5b506101dc6105653660046119b2565b600a6020526000908152604090205460ff1681565b60006001600160e01b03198216632483248360e11b148061059f575061059f82610d69565b92915050565b6060600080546105b490611c0e565b80601f01602080910402602001604051908101604052809291908181526020018280546105e090611c0e565b801561062d5780601f106106025761010080835404028352916020019161062d565b820191906000526020600020905b81548152906001019060200180831161061057829003601f168201915b5050505050905090565b600061064282610db9565b506000908152600460205260409020546001600160a01b031690565b600061066982610a15565b9050806001600160a01b0316836001600160a01b0316036106db5760405162461bcd60e51b815260206004820152602160248201527f4552433732313a20617070726f76616c20746f2063757272656e74206f776e656044820152603960f91b60648201526084015b60405180910390fd5b336001600160a01b03821614806106f757506106f78133610cc5565b6107695760405162461bcd60e51b815260206004820152603d60248201527f4552433732313a20617070726f76652063616c6c6572206973206e6f7420746f60448201527f6b656e206f776e6572206f7220617070726f76656420666f7220616c6c00000060648201526084016106d2565b6107738383610e18565b505050565b610780610e86565b600955565b61078f3382610ee0565b6107ab5760405162461bcd60e51b81526004016106d290611c48565b610773838383610f3f565b6107be610e86565b6007546040516001600160a01b03909116904780156108fc02916000818181858888f193505050501580156107f7573d6000803e3d6000fd5b50565b61077383838360405180602001604052806000815250610bfe565b61081d610e86565b6001600160a01b03166000818152600a60205260408120805460ff19166001908117909155600b805491820181559091527f0175b7a638427703f0dbe7bb9bbf987a2551717b34e79f33b5b1008d1fa01db90180546001600160a01b0319169091179055565b61088b610e86565b6001600160a01b0381166000908152600a60205260408120805460ff191690555b600b548110156109b057816001600160a01b0316600b82815481106108d3576108d3611c95565b6000918252602090912001546001600160a01b03160361099e57600b80546108fd90600190611cc1565b8154811061090d5761090d611c95565b600091825260209091200154600b80546001600160a01b03909216918390811061093957610939611c95565b9060005260206000200160006101000a8154816001600160a01b0302191690836001600160a01b03160217905550600b80548061097857610978611cd4565b600082815260209020810160001990810180546001600160a01b03191690550190555050565b806109a881611cea565b9150506108ac565b5050565b6060600b80548060200260200160405190810160405280929190818152602001828054801561062d57602002820191906000526020600020905b81546001600160a01b031681526001909101906020018083116109ee575050505050905090565b6000818152600260205260408120546001600160a01b03168061059f5760405162461bcd60e51b8152602060048201526018602482015277115490cdcc8c4e881a5b9d985b1a59081d1bdad95b88125160421b60448201526064016106d2565b60006001600160a01b038216610adf5760405162461bcd60e51b815260206004820152602960248201527f4552433732313a2061646472657373207a65726f206973206e6f7420612076616044820152683634b21037bbb732b960b91b60648201526084016106d2565b506001600160a01b031660009081526003602052604090205490565b610b03610e86565b610b0d60006110a3565b565b600b8181548110610b1f57600080fd5b6000918252602090912001546001600160a01b0316905081565b6060600180546105b490611c0e565b60006060610b5583610a15565b9150610b60836110f5565b9050915091565b6109b03383836111fd565b610b80600880546001019055565b6000610b8b60085490565b9050600954341015610bdf5760405162461bcd60e51b815260206004820152601860248201527f496e73756666696369656e74206d696e74696e6720666565000000000000000060448201526064016106d2565b610be933826112cb565b610bf381846112e5565b610773826001610b67565b610c083383610ee0565b610c245760405162461bcd60e51b81526004016106d290611c48565b610c30848484846113b0565b50505050565b606061059f826110f5565b336000908152600a602052604090205460ff16610ca05760405162461bcd60e51b815260206004820152601860248201527f4e6f7420616e20617574686f72697a65642076656e646f72000000000000000060448201526064016106d2565b610cae600880546001019055565b6000610cb960085490565b9050610be933826112cb565b6001600160a01b03918216600090815260056020908152604080832093909416825291909152205460ff1690565b610cfb610e86565b6001600160a01b038116610d605760405162461bcd60e51b815260206004820152602660248201527f4f776e61626c653a206e6577206f776e657220697320746865207a65726f206160448201526564647265737360d01b60648201526084016106d2565b6107f7816110a3565b60006001600160e01b031982166380ac58cd60e01b1480610d9a57506001600160e01b03198216635b5e139f60e01b145b8061059f57506301ffc9a760e01b6001600160e01b031983161461059f565b6000818152600260205260409020546001600160a01b03166107f75760405162461bcd60e51b8152602060048201526018602482015277115490cdcc8c4e881a5b9d985b1a59081d1bdad95b88125160421b60448201526064016106d2565b600081815260046020526040902080546001600160a01b0319166001600160a01b0384169081179091558190610e4d82610a15565b6001600160a01b03167f8c5be1e5ebec7d5bd14f71427d1e84f3dd0314c0f7b2291e5b200ac8c7c3b92560405160405180910390a45050565b6007546001600160a01b03163314610b0d5760405162461bcd60e51b815260206004820181905260248201527f4f776e61626c653a2063616c6c6572206973206e6f7420746865206f776e657260448201526064016106d2565b600080610eec83610a15565b9050806001600160a01b0316846001600160a01b03161480610f135750610f138185610cc5565b80610f375750836001600160a01b0316610f2c84610637565b6001600160a01b0316145b949350505050565b826001600160a01b0316610f5282610a15565b6001600160a01b031614610f785760405162461bcd60e51b81526004016106d290611d03565b6001600160a01b038216610fda5760405162461bcd60e51b8152602060048201526024808201527f4552433732313a207472616e7366657220746f20746865207a65726f206164646044820152637265737360e01b60648201526084016106d2565b826001600160a01b0316610fed82610a15565b6001600160a01b0316146110135760405162461bcd60e51b81526004016106d290611d03565b600081815260046020908152604080832080546001600160a01b03199081169091556001600160a01b0387811680865260038552838620805460001901905590871680865283862080546001019055868652600290945282852080549092168417909155905184937fddf252ad1be2c89b69c2b068fc378daa952ba7f163c4a11628f55a4df523b3ef91a4505050565b600780546001600160a01b038381166001600160a01b0319831681179093556040519116919082907f8be0079c531659141344cd1fd0a4f28419497f9722a3daafe3b4186f6b6457e090600090a35050565b606061110082610db9565b6000828152600660205260408120805461111990611c0e565b80601f016020809104026020016040519081016040528092919081815260200182805461114590611c0e565b80156111925780601f1061116757610100808354040283529160200191611192565b820191906000526020600020905b81548152906001019060200180831161117557829003601f168201915b5050505050905060006111b060408051602081019091526000815290565b905080516000036111c2575092915050565b8151156111f45780826040516020016111dc929190611d48565b60405160208183030381529060405292505050919050565b610f37846113e3565b816001600160a01b0316836001600160a01b03160361125e5760405162461bcd60e51b815260206004820152601960248201527f4552433732313a20617070726f766520746f2063616c6c65720000000000000060448201526064016106d2565b6001600160a01b03838116600081815260056020908152604080832094871680845294825291829020805460ff191686151590811790915591519182527f17307eab39ab6107e8899845ad3d59bd9653f200f220920489ca2b5937696c31910160405180910390a3505050565b6109b0828260405180602001604052806000815250611457565b6000828152600260205260409020546001600160a01b03166113605760405162461bcd60e51b815260206004820152602e60248201527f45524337323155524953746f726167653a2055524920736574206f66206e6f6e60448201526d32bc34b9ba32b73a103a37b5b2b760911b60648201526084016106d2565b60008281526006602052604090206113788282611dc5565b506040518281527ff8e1a15aba9398e019f0b49df1a4fde98ee17ae345cb5f6b5e2c27f5033e8ce79060200160405180910390a15050565b6113bb848484610f3f565b6113c78484848461148a565b610c305760405162461bcd60e51b81526004016106d290611e85565b60606113ee82610db9565b600061140560408051602081019091526000815290565b905060008151116114255760405180602001604052806000815250611450565b8061142f8461158b565b604051602001611440929190611d48565b6040516020818303038152906040525b9392505050565b611461838361161e565b61146e600084848461148a565b6107735760405162461bcd60e51b81526004016106d290611e85565b60006001600160a01b0384163b1561158057604051630a85bd0160e11b81526001600160a01b0385169063150b7a02906114ce903390899088908890600401611ed7565b6020604051808303816000875af1925050508015611509575060408051601f3d908101601f1916820190925261150691810190611f14565b60015b611566573d808015611537576040519150601f19603f3d011682016040523d82523d6000602084013e61153c565b606091505b50805160000361155e5760405162461bcd60e51b81526004016106d290611e85565b805181602001fd5b6001600160e01b031916630a85bd0160e11b149050610f37565b506001949350505050565b60606000611598836117a9565b600101905060008167ffffffffffffffff8111156115b8576115b8611a7a565b6040519080825280601f01601f1916602001820160405280156115e2576020820181803683370190505b5090508181016020015b600019016f181899199a1a9b1b9c1cb0b131b232b360811b600a86061a8153600a85049450846115ec57509392505050565b6001600160a01b0382166116745760405162461bcd60e51b815260206004820181905260248201527f4552433732313a206d696e7420746f20746865207a65726f206164647265737360448201526064016106d2565b6000818152600260205260409020546001600160a01b0316156116d95760405162461bcd60e51b815260206004820152601c60248201527f4552433732313a20746f6b656e20616c7265616479206d696e7465640000000060448201526064016106d2565b6000818152600260205260409020546001600160a01b03161561173e5760405162461bcd60e51b815260206004820152601c60248201527f4552433732313a20746f6b656e20616c7265616479206d696e7465640000000060448201526064016106d2565b6001600160a01b038216600081815260036020908152604080832080546001019055848352600290915280822080546001600160a01b0319168417905551839291907fddf252ad1be2c89b69c2b068fc378daa952ba7f163c4a11628f55a4df523b3ef908290a45050565b60008072184f03e93ff9f4daa797ed6e38ed64bf6a1f0160401b83106117e85772184f03e93ff9f4daa797ed6e38ed64bf6a1f0160401b830492506040015b6d04ee2d6d415b85acef81000000008310611814576d04ee2d6d415b85acef8100000000830492506020015b662386f26fc10000831061183257662386f26fc10000830492506010015b6305f5e100831061184a576305f5e100830492506008015b612710831061185e57612710830492506004015b60648310611870576064830492506002015b600a831061059f5760010192915050565b6001600160e01b0319811681146107f757600080fd5b6000602082840312156118a957600080fd5b813561145081611881565b60005b838110156118cf5781810151838201526020016118b7565b50506000910152565b600081518084526118f08160208601602086016118b4565b601f01601f19169290920160200192915050565b60208152600061145060208301846118d8565b60006020828403121561192957600080fd5b5035919050565b80356001600160a01b038116811461194757600080fd5b919050565b6000806040838503121561195f57600080fd5b61196883611930565b946020939093013593505050565b60008060006060848603121561198b57600080fd5b61199484611930565b92506119a260208501611930565b9150604084013590509250925092565b6000602082840312156119c457600080fd5b61145082611930565b6020808252825182820181905260009190848201906040850190845b81811015611a0e5783516001600160a01b0316835292840192918401916001016119e9565b50909695505050505050565b6001600160a01b0383168152604060208201819052600090610f37908301846118d8565b60008060408385031215611a5157600080fd5b611a5a83611930565b915060208301358015158114611a6f57600080fd5b809150509250929050565b634e487b7160e01b600052604160045260246000fd5b600067ffffffffffffffff80841115611aab57611aab611a7a565b604051601f8501601f19908116603f01168101908282118183101715611ad357611ad3611a7a565b81604052809350858152868686011115611aec57600080fd5b858560208301376000602087830101525050509392505050565b60008060408385031215611b1957600080fd5b823567ffffffffffffffff811115611b3057600080fd5b8301601f81018513611b4157600080fd5b611b5085823560208401611a90565b925050611b5f60208401611930565b90509250929050565b60008060008060808587031215611b7e57600080fd5b611b8785611930565b9350611b9560208601611930565b925060408501359150606085013567ffffffffffffffff811115611bb857600080fd5b8501601f81018713611bc957600080fd5b611bd887823560208401611a90565b91505092959194509250565b60008060408385031215611bf757600080fd5b611c0083611930565b9150611b5f60208401611930565b600181811c90821680611c2257607f821691505b602082108103611c4257634e487b7160e01b600052602260045260246000fd5b50919050565b6020808252602d908201527f4552433732313a2063616c6c6572206973206e6f7420746f6b656e206f776e6560408201526c1c881bdc88185c1c1c9bdd9959609a1b606082015260800190565b634e487b7160e01b600052603260045260246000fd5b634e487b7160e01b600052601160045260246000fd5b8181038181111561059f5761059f611cab565b634e487b7160e01b600052603160045260246000fd5b600060018201611cfc57611cfc611cab565b5060010190565b60208082526025908201527f4552433732313a207472616e736665722066726f6d20696e636f72726563742060408201526437bbb732b960d91b606082015260800190565b60008351611d5a8184602088016118b4565b835190830190611d6e8183602088016118b4565b01949350505050565b601f82111561077357600081815260208120601f850160051c81016020861015611d9e5750805b601f850160051c820191505b81811015611dbd57828155600101611daa565b505050505050565b815167ffffffffffffffff811115611ddf57611ddf611a7a565b611df381611ded8454611c0e565b84611d77565b602080601f831160018114611e285760008415611e105750858301515b600019600386901b1c1916600185901b178555611dbd565b600085815260208120601f198616915b82811015611e5757888601518255948401946001909101908401611e38565b5085821015611e755787850151600019600388901b60f8161c191681555b5050505050600190811b01905550565b60208082526032908201527f4552433732313a207472616e7366657220746f206e6f6e20455243373231526560408201527131b2b4bb32b91034b6b83632b6b2b73a32b960711b606082015260800190565b6001600160a01b0385811682528416602082015260408101839052608060608201819052600090611f0a908301846118d8565b9695505050505050565b600060208284031215611f2657600080fd5b81516114508161188156fea2646970667358221220eb73cd1d9ad8d33426b51cf6e1b7aaaebf28e179dcf1ee38cd72588f35ad4c3364736f6c63430008110033",
  "linkReferences": {},
  "deployedLinkReferences": {}
}